:020000040800F2
:10000000FCFF00200D16000005160000051600007C
:100010000516000005160000051600000516000074
:100020000516000005160000051600000516000064
:100030000516000005160000051600000516000054
:100040000516000005160000051600000516000044
:100050000516000005160000051600000516000034
:100060000516000005160000051600000516000024
:100070000516000005160000051600000516000014
:100080000516000005160000051600000516000004
:1000900005160000051600000516000005160000F4
:1000A00005160000051600000516000005160000E4
:1000B00005160000051600000516000005160000D4
:1000C00005160000051600000516000005160000C4
:1000D00005160000051600000516000005160000B4
:1000E00005160000051600000516000005160000A4
:1000F0000516000005160000051600000516000094
:100100000516000005160000051600000516000083
:100110000516000005160000051600000516000073
:100120000516000005160000051600000516000063
:100130000516000005160000051600000516000053
:100140000516000005160000051600000516000043
:1001500083B0CDF800E000F0FF031A09104603F069
:100160000F02134614E0194A02921FE0184A029245
:100170001CE0184A029219E0174A029216E0174A48
:10018000029213E0164A029210E0164A02920DE023
:100190000028E8D00128E9D00228EAD00328EBD0D3
:1001A0000428ECD00528EDD00628EED0012212B2AA
:1001B0009A40ADF8042002980A46BDF8041000F0F9
:1001C0003BF9DDF800E003B0704700BF00080140D4
:1001D000000C0140001001400014014000180140D3
:1001E000001C01400020014001480068704700BF2A
:1001F000DC00002081B0CDF800E0012252B23E497F
:100200000A6000F268010B686FF0006103EA010206
:10021000144603F00061C90E0B4602F00041B1F133
:10022000004F02D135490A6801E035490A6804F4F3
:100230007021090C0E464FF6FF7104EA01010D46CC
:1002400004F44011B1F5401F0DD16FF0706102EA66
:1002500001010E462A490A686FF070610A40284978
:100260000A60324616E004F48011B1F5801F09D10E
:100270004FF00301B140C94302EA010141F070614E
:100280000A4607E0610D090105FA01F1C9430A4078
:1002900042F070622BB1610D090105FA01F10A43C8
:1002A000FFE704F00041B1F1004F02D113490A60A9
:1002B00001E013490A6040F2000A81464FEA8A01D0
:1002C00009EB01010968B1F1FF3F10D009F13401D8
:1002D0004FEA8A03C91809680A4609EB030109684D
:1002E00008461146FFF734FF0AF1010AE6E7DDF898
:1002F00000E001B0704700BF000342421C00014013
:100300000400014081B0194900EA010108460022B9
:100310000EE0042022E0082020E010201EE0202033
:100320001CE040201AE0802018E040F2001015E0A8
:100330000F498842EDD00F498842ECD00E498842DF
:10034000EBD00E498842EAD00D498842E9D00D49E8
:100350008842E8D00C498842E7D010460B4909682A
:1003600041EA000209490A6001B0704700FCFFFF42
:1003700000080140000C0140001001400014014041
:1003800000180140001C01400020014018100240EC
:1003900082B0CDF800E0034619460191FFF724FF33
:1003A00040F2E83100FB01F201990A601F49097827
:1003B000C1F30311C8B21E4909180878C0B21A1D4A
:1003C0001968C140116019490988C1F3022188B236
:1003D000174909180878C0B203F20802191D096804
:1003E000C140116011490988C1F3C22188B2104986
:1003F00009180878C0B203F20C02191D0968C1403F
:1004000011600A490988C1F3813188B20949091884
:100410000978C8B203F2100203F20C010968B1FBBB
:10042000F0F11160DDF800E002B070470410024006
:1004300084190000440B000081B0CDF800E08CB2BC
:100440001546774B00EA03031E461846FFF75AFF8E
:10045000B4F1FF0F0CD1734B9D4203D14FF03333F6
:100460003360D9E0422D03D14FF044333360D3E001
:100470004FF6FF739C4214D16A4B9D4207D14FF057
:1004800033333360341D4FF033332360C4E0422DE7
:1004900007D14FF044333360341D4FF044332360B1
:1004A000BAE00021002005F001030BB100211DE09E
:1004B00005F0020333B105F4C0730BB1082100E06D
:1004C000042113E005F0040333B105F020030BB160
:1004D000042100E0002109E005F0080333B105F034
:1004E00020030BB10C2100E00821FFE74E4B05EA89
:1004F00003030BB1032009E005F400730BB10220E4
:1005000004E005F480630BB10120FFE705F00C0364
:100510000BB10143FFE704F0FF039BB2002B3BD07C
:10052000376800201FFA84F832462E4608282CD25D
:100530004FF0010303FA00F408EA0403A34222D1B6
:1005400085004FF00F03AB40DB4307EA030401FAD9
:1005500005F344EA03031D4606F48173B3F5817F76
:1005600005D102F214044FF001038340236006F02A
:100570008203822B05D102F210044FF00103834065
:1005800023602F46FFE7401CD0E717601FFA88F072
:100590000F463146164602E00F462946A0B2B0F19A
:1005A000FF0F39D9331DD3F800800022082A30D23A
:1005B00002F208044FF0010303FA04F400EA040312
:1005C000A34224D195004FF00F03AB40DB4308EA70
:1005D000030807FA05F348EA030801F48173B3F549
:1005E000817F07D106F2140502F208044FF00103DF
:1005F000A3402B6001F08203822B07D106F2100585
:1006000002F208044FF00103A3402B60FFE7521CE5
:10061000CCE7331DC3F80080DDF800E001B070477F
:1006200000FCFFFF140008000008080089B0CDF8A6
:1006300000E0834698B28C46BDF824100A9E04ACB4
:10064000ADF80410ADF808002046FFF7A1FEBDF894
:100650000800BDF80410644CA34512D101256DB209
:10066000624C2560624D634C2560634D634C256090
:10067000634D644C2560644D644C2560079C039475
:1006800056E0634CA34512D101256DB2614C256043
:10069000614D584C2560614D584C2560604D594C5A
:1006A0002560604D594C2560069C039440E05E4CEB
:1006B000A34512D101256DB25C4C25605C4D4D4CBB
:1006C00025605C4D4D4C25605B4D4E4C25605B4D6F
:1006D0004E4C2560069C03942AE0594CA34512D148
:1006E00001256DB2574C2560574D424C2560574D42
:1006F000424C2560564D434C2560564D434C256079
:10070000069C039414E0544CA34511D101256DB20D
:10071000524C2560524D374C2560524D374C256068
:10072000514D384C2560514D384C2560069C039442
:10073000ADF80410ADF808003046FFF75BFDBDF8DA
:100740000800BDF804100BF1100500242C600BF11B
:1007500010052C680C432C600BF10C0500242C6058
:1007600018B140F4806080B2FFE70BF10C052C68F3
:1007700004432C600BF10C060125346865F34D34FD
:1007800034600BF10C060125346865F3C304346052
:100790000BF10C060125346865F3820434600BF11B
:1007A000140500242C60039D192465434FEA8C0432
:1007B000B5FBF4F76424B7FBF4F42601350964248F
:1007C0006C433C1B240104F232056424B5FBF4F4B1
:1007D00004F00F0446EA04040BF10805A4B22C60EF
:1007E000DDF800E009B070470038014038034242AC
:1007F000B9080000E0000020FFFFFFFFE400002038
:10080000FFFFFFFFE8000020FFFFFFFFEC000020DC
:1008100000440040C40342429D080000FFFFFFFF68
:10082000FFFFFFFFFFFFFFFF00480040C8034242F9
:10083000F1080000FFFFFFFFFFFFFFFFFFFFFFFFCB
:10084000004C0040CC034242D5080000FFFFFFFFF0
:10085000FFFFFFFFFFFFFFFF00500040D0034242B9
:100860000D090000FFFFFFFFFFFFFFFFFFFFFFFF7E
:1008700081B0ADF800100146BDF800000B68C3F36D
:10088000C01202B9FAE70A1D106001B07047FFFFFD
:1008900001480068704700BF1C81214281B0CDF83B
:1008A00000E081B20348FFF7E3FFDDF800E001B0AC
:1008B000704700BF0044004081B0CDF800E081B235
:1008C0000348FFF7D5FFDDF800E001B0704700BF37
:1008D0000038014081B0CDF800E081B20348FFF755
:1008E000C7FFDDF800E001B0704700BF004C0040DA
:1008F00081B0CDF800E081B20348FFF7B9FFDDF821
:1009000000E001B0704700BF0048004081B0CDF862
:1009100000E081B20348FFF7ABFFDDF800E001B073
:10092000704700BF0050004001480068704700BF9A
:100930002801224201480068704700BF2C01224272
:1009400001480068704700BF3481224201480068B6
:10095000704700BF1001214201480068704700BF86
:100960000801224201480068704700BF300122425E
:1009700001480068704700BF20812242014800689A
:10098000704700BF1881214201480068704700BFCE
:100990002481224201480068704700BF00012142C3
:1009A00001480068704700BF2881224281B0CDF81D
:1009B00000E04FF0420289B2FFF73EFDDDF800E0B3
:1009C00001B0704701480068704700BF3081224283
:1009D00001480068704700BF3081224281B0CDF8E5
:1009E00000E0044A89B2FFF727FDDDF800E001B01E
:1009F000704700BF1400080001480068704700BF3E
:100A00001881214201480068704700BF1C812142C3
:100A100001480068704700BF188122420148006801
:100A2000704700BF1481224201480068704700BF30
:100A30003001224281B0CDF800E0019D2C4610B477
:100A400008B493B28AB201460348FFF7EFFD02B043
:100A5000DDF800E001B0704700380140014800684F
:100A6000704700BF3881224201480068704700BFCC
:100A70001401214201480068704700BF0C01224266
:100A800081B0CDF800E0019D2C4610B408B493B2BB
:100A90008AB201460348FFF7C9FD02B0DDF800E065
:100AA00001B070470048004001480068704700BF2F
:100AB0002C01224281B0CDF800E0019D2C4610B4FB
:100AC00008B493B28AB201460348FFF7AFFD02B003
:100AD000DDF800E001B070470044004001480068C4
:100AE000704700BF2801224201490860704700BFDB
:100AF0009881224201490860704700BF94812242D8
:100B000001490860704700BFB08122420149086076
:100B1000704700BFB001224201490860704700BF22
:100B2000B081224281B0CDF800E0054C2468A04796
:100B300008B1012000E00020DDF800E001B07047BE
:100B4000F00000200204060840F20B07C0F2000784
:100B50007F1EFDD100BF00BF00BF00BF00BF7047B8
:100B600040F25727C0F200077F1EFDD100BF00BF33
:100B700000BF00BF00BF704701490860704700BF59
:100B80009881214201490860704700BF9C81214241
:100B900001490860704700BFAC012242014908606A
:100BA000704700BF8801224201490860704700BFBA
:100BB0009001214200F230011C310A6806490A60A6
:100BC00000F208010A6805490A6000F218010A6883
:100BD00003490A60704700BFF0000020F4000020C5
:100BE000F800002001490860704700BFB48122422C
:100BF00001490860704700BFB00122420149086006
:100C0000704700BFAC01224201490860704700BF35
:100C1000A801224281B0CDF800E0094902B440F2B7
:100C2000000340F2000240F20001FFF729FF01B08B
:100C3000044A05490A600020DDF800E001B0704771
:100C40004C180000F1080000D800002081B0CDF859
:100C500000E0A9E0012905D140F220016548FFF735
:100C6000A5FE04E040F220016248FFF7B7FEBBE0BA
:100C7000012905D140F208015F48FFF797FE04E023
:100C800040F208015C48FFF7A9FEADE0012905D15B
:100C900044F200015948FFF789FE04E044F20001E4
:100CA0005648FFF79BFE9FE0012905D140F2004125
:100CB0005148FFF77BFE04E040F200414E48FFF749
:100CC0008DFE91E0012905D140F600014A48FFF769
:100CD0006DFE04E040F600014748FFF77FFE83E029
:100CE000012905D141F200014348FFF75FFE04E00E
:100CF00041F200014048FFF771FE75E0012905D17E
:100D000041F200013D48FFF751FE04E041F20001CD
:100D10003A48FFF763FE67E0012905D140F600017C
:100D20003648FFF743FE04E040F600013348FFF782
:100D300055FE59E0012905D140F240012F48FFF747
:100D400035FE04E040F240012C48FFF747FE4BE03F
:100D5000012905D140F220012848FFF727FE04E0D1
:100D600040F220012548FFF739FE3DE0012905D179
:100D700040F240012248FFF719FE04E040F2400132
:100D80001F48FFF72BFE2FE0012905D140F280011B
:100D90001B48FFF70BFE04E040F280011848FFF704
:100DA0001DFE21E0012020E000283FF453AF012880
:100DB0003FF45EAF02283FF469AF03283FF474AFFD
:100DC00004283FF47FAF05283FF48AAF06283FF49C
:100DD00095AF0728A0D00828ACD00928B8D00A2899
:100DE000C4D00B28D0D0DDE70020DDF800E001B052
:100DF000704700BF0008014000100140001401408E
:100E0000000C014081B0CDF800E0A9E0012905D136
:100E100040F210016548FFF7C9FD04E040F21001FF
:100E20006248FFF7DBFDBBE0012905D140F2040178
:100E30005F48FFF7BBFD04E040F204015C48FFF7A8
:100E4000CDFDADE0012905D142F200015948FFF77F
:100E5000ADFD04E042F200015648FFF7BFFD9FE000
:100E6000012905D140F200415148FFF79FFD04E000
:100E700040F200414E48FFF7B1FD91E0012905D154
:100E800040F600014A48FFF791FD04E040F60001FA
:100E90004748FFF7A3FD83E0012905D141F2000196
:100EA0004348FFF783FD04E041F200014048FFF7AB
:100EB00095FD75E0012905D140F201013B48FFF79E
:100EC00075FD04E040F201013848FFF787FD67E057
:100ED000012905D140F200413648FFF767FD04E0E3
:100EE00040F200413348FFF779FD59E0012905D16F
:100EF00040F200212F48FFF759FD04E040F20021A5
:100F00002C48FFF76BFD4BE0012905D140F20011A1
:100F10002848FFF74BFD04E040F200112548FFF799
:100F20005DFD3DE0012905D140F240012248FFF777
:100F30003DFD04E040F240011F48FFF74FFD2FE068
:100F4000012905D140F280011B48FFF72FFD04E085
:100F500040F280011848FFF741FD21E0012020E028
:100F600000283FF453AF01283FF45EAF02283FF45E
:100F700069AF03283FF474AF04283FF47FAF05281E
:100F80003FF48AAF06283FF495AF0728A0D0082881
:100F9000ACD00928B8D00A28C4D00B28D0D0DDE7BF
:100FA0000020DDF800E001B0704700BF00080140FC
:100FB0000010014000140140000C014081B0CDF848
:100FC00000E0094902B440F2000340F2000240F29E
:100FD0000001FFF76FFD01B0044A05490A600020D7
:100FE000DDF800E001B07047B81800009D0800006F
:100FF000D800002081B0CDF800E00178CCB2A0B2DA
:10100000034C2468A0470020DDF800E001B07047E1
:10101000D800002081B0CDF800E0094902B440F2C8
:10102000000340F2000240F20001FFF743FD01B06F
:10103000044A05490A600020DDF800E001B070476D
:10104000B81800009D080000D800002081B0CDF83D
:1010500000E0094902B440F2000340F2000240F20D
:101060000001FFF7E7FC01B0044A05490A600020CF
:10107000DDF800E001B07047E0170000B90800009B
:10108000D800002001490860704700BF9C812142C0
:1010900001490860704700BF9881214201490860FA
:1010A000704700BFA081224201490860704700BF1D
:1010B0009401214201490860704700BFA801224203
:1010C00001490860704700BFB881224201490860A9
:1010D000704700BF8C01224201490860704700BF81
:1010E000A481224201490860704700BFA8812242C2
:1010F00001490860704700BF8001214281B0CDF8EE
:1011000000E011E00846FFF785FD16E00846FFF70E
:1011100055FF12E00846FFF799FF0EE00846FFF77B
:1011200079FF0AE0012008E00028EBD00128EDD08B
:101130002028EFD03028F1D0F4E7DDF800E001B04E
:101140007047FFFF84B0CDF800E003914FF000023C
:1011500002920DE019228DF8042010E01A228DF879
:1011600004200CE01B228DF8042008E001204EE052
:101170000028EFD00128F1D00228F3D0F6E7FFF7DE
:10118000D1FC00B1FBE7FFF7DFFC18228DF805204A
:101190009DF80520002A1CD901201F4C2468A04777
:1011A000FFF7D2FCFFF7BEFC9DF80520521E12B2DD
:1011B00000FA02F3029A1A4302920020164C2468A5
:1011C000A047FFF7C1FC9DF80520521E8DF80520B1
:1011D000DEE79DF80420183A8DF804209DF80420DD
:1011E0008AB101200C4C2468A047FFF7ADFC002019
:1011F000094C2468A047FFF7A7FC9DF80420521E65
:101200008DF80420EAE7029B039A13600020DDF8C2
:1012100000E004B0704700BFF800002081B0CDF8B6
:1012200000E0FFF7C7FCDDF800E001B07047FFFF0A
:1012300081B00A46014600200D4611460A2805D213
:101240000B1820221A70401C80B2F7E70B180022FE
:101250001A70401E80B20C180A23B5FBF3F203FB90
:101260001252303222700A22B5FBF2F2154602B950
:1012700002E0401E80B2EEE701B0704781B0CDF8C9
:1012800000E05FFA81F95FFA82FA0FE05FFA8AF113
:101290005FFA89F0FFF7B6FD0DE05FFA8AF15FFAB9
:1012A00089F0FFF7D3FC06E0012004E00028EDD030
:1012B0000128F2D0F8E7DDF800E001B07047FFFF49
:1012C00081B0CDF800E00120084C2468A047FFF76A
:1012D00047FCFFF745FC0020044C2468A047FFF7BB
:1012E0003FFCDDF800E001B0704700BFF8000020CF
:1012F00083B0CDF800E0024610460D228DF808209C
:101300000A228DF809201FE0FFF774FE23E002781F
:101310002AB10190FFF76EFE0198401CF7E71AE032
:1013200002782AB10190FFF765FE0198401CF7E7AB
:1013300002AA1046FFF75EFE0DF109021046FFF704
:1013400059FE08E0062007E00029DDD00129DED0A3
:101350000229E5D0F6E70020DDF800E003B0704791
:1013600081B0CDF800E020B10120084C2468A047EE
:1013700003E00020054C2468A047FFF7F1FBFFF7CE
:10138000EFFBDDF800E001B0704700BFF80000207F
:1013900081B0CDF800E020B10120064C2468A047C0
:1013A00003E00020034C2468A047DDF800E001B012
:1013B000704700BFF400002081B01CF8019B0BF8BF
:1013C000019BBBEB0A0FF8D101B0704781B0154803
:1013D000006840F00101134801601349134801609F
:1013E00010480168124801400E4801600D4801682C
:1013F0006FF4802001400B4801600C4801686FF4D5
:10140000FE00014009480160064801686FF0A050E5
:101410000140044801604FF000010648016001B03E
:10142000704700BF001002400000FFF004100240AF
:10143000FFFFF6FE2C10024081B04FF000094FF084
:10144000000CBDEB0A0F04DCBDEB0B0F01DBD44637
:10145000EA464BF8049BBBEB0A0FFAD1BCEB0A0F30
:1014600005DDE246D9F800B00BF1040BF1E701B05D
:101470007047FFFFFFFFFFFF81B0CDF800E0164887
:10148000FFF7CCFE44F67F77C0F2120700BF00BF23
:101490007F1EFDD100BF00BF00BF0020FFF760FF2F
:1014A000FFF70EFF0020FFF773FF0C480221FFF744
:1014B0001FFF0B480221FFF71BFF49F6FF67C0F231
:1014C00024077F1EFDD100BF00BF00BF00BF00BFCB
:1014D000DDF800E001B0704724190000540000203E
:1014E0006D000020FFFFFFFF81B0CDF800E0234931
:1014F0000120FFF727FE214800682149FFF798FEE9
:1015000020480121FFF7F4FE02211D48FFF7F0FEFD
:101510001A490220FFF716FE184800681849FFF71D
:1015200087FE19480121FFF7E3FE02211448FFF767
:10153000DFFE12490020FFF705FE10480068104941
:10154000FFF776FE11480121FFF7D2FE02210C4879
:10155000FFF7CEFE0E480221FFF7CAFE48F67F577E
:10156000C0F25B0700BF00BF7F1EFDD100BF00BF00
:1015700000BFDDF800E001B0704700BF7000002040
:101580007400002010000020270000203D000020F3
:1015900053000020FFFFFFFF81B0CDF800E00122E3
:1015A00007210020FFF76AFE002202210020FFF73A
:1015B00065FE002206210020FFF760FE42F2805106
:1015C0002020FFF79BFD09480221FFF791FE44F61A
:1015D0007F77C0F2120700BF00BF7F1EFDD100BFA2
:1015E00000BF00BFDDF800E001B070470000002040
:1015F00081B002490248016001B070474019010002
:10160000DC00002081B0FEE701B0704700F00EF86A
:1016100000F000FAFFF7ECFF00F0BCF9FFF7BCFFA9
:10162000FFF72AFFFFF760FFFCE7FEE781B0CDF888
:1016300000E0464A464B474C47494BF680308142D2
:1016400006D94648006840F002014448016011E0B4
:1016500045F6C050814206D94048006840F001017B
:101660003E48016006E03D4801686FF00700014018
:101670003A480160FFF7AAFE394803603948046020
:10168000394802EA00013948016002F0010040B126
:1016900019463648006800F00200002800D1F8E73B
:1016A00000E0194602F4803040B10B462F48006834
:1016B00000F40030002800D1F8E700E00B4602F00B
:1016C000805068B12948006840F080512748016087
:1016D0002648006800F00050002800D1F8E7FFE736
:1016E00002F0806078B12148006840F080611F48B6
:1016F000016011461A461D48006800F0006000288D
:1017000000D1F8E701E011461A4601F0807070B18F
:101710001648006840F08071144801601146134873
:10172000006800F0007000B9F9E70A46FFE70C48CE
:10173000006800F00C01900000F00C00814200D025
:10174000F5E7DDF800E001B0704700BF810001055A
:1017500002841D00440601004019010000200240DF
:10176000041002402C100240FFFF0F000010024046
:10177000496E697469616C697A696E672E2E2E00F4
:101780004368616E6E656C204120283132382047F5
:1017900061696E293A20004368616E6E656C204273
:1017A00020283332204761696E293A20004368615E
:1017B0006E6E656C204120283634204761696E29A1
:1017C0003A2000004C4F41442043454C4C20697363
:1017D00020696E697469616C697A65640000FFFF55
:1017E000090000000A000000FFFFFFFF00000000EA
:1017F00000000000000000000000000000000000E9
:1018000000000000000000000000000000000000D8
:101810000000000018080000180000000000000090
:1018200000000000000000000000000000000000B8
:1018300000000000000000000000000000000000A8
:10184000000000000000000004000000380000005C
:1018500039000000FFFFFFFF000000000000000053
:101860000000000000000000000000000000000078
:101870000000000000000000000000000000000068
:101880001808000018000000000000000000000020
:101890000000000000000000000000000000000048
:1018A0000000000000000000000000000000000038
:1018B0000000000030001408350000003600000071
:1018C000FFFFFFFF0000000000000000000000001C
:1018D0000000000000000000000000000000000008
:1018E00000000000000000000000000018080000D8
:1018F00018000000000000000000000000000000D0
:1019000000000000000000000000000000000000D7
:1019100000000000000000000000000000000000C7
:1019200008000008A90B00009D0B0000E50B00005B
:10193000090C0000FD0B0000F10B0000F11000008D
:10194000E5100000D91000009D100000911000006B
:10195000851000004D0900005909000041090000F0
:1019600029090000350900006509000095090000FB
:10197000A109000089090000710900007D0900002B
:1019800091080000000000000102030401020304AA
:101990000607080900B5DFF814B0DFF814A0DFF877
:1019A00014C0FFF709FD00BD704700BF0000002014
:1019B0006E00002070170000FFFFFFFFFFFFFFFF1A
:1019C000FFFFFFFFFFFFFFFFFFFFFFFFFFFFFFFF27
:1019D000FFFFFFFFFFFFFFFFFFFFFFFFFFFFFFFF17
:1019E000FFFFFFFFFFFFFFFFFFFFFFFFFFFFFFFF07
:1019F000FFFFFFFFFFFFFFFFFFFFFFFFFFFFFFFFF7
:101A0000FFFFFFFFFFFFFFFFFFFFFFFFFFFFFFFFE6
:101A1000FFFFFFFF00B5DFF810B0DFF810A0FFF701
:101A20000BFD00BD704700BF00000020FC0000203F
:00000001FF
